:020000040800F2
:1000000058040020450100089D2400089F24000892
:10001000A3240008A7240008AB2400080000000067
:10002000000000000000000000000000AF240008F5
:10003000B124000800000000B3240008B524000823
:100040005F0100085F0100085F0100085F01000810
:100050005F0100085F010008B72400085F01000885
:100060005F0100085F0100085F0100085F010008F0
:100070005F0100085F0100085F0100085F010008E0
:100080005F0100085F0100085F0100085F010008D0
:100090005F0100085F0100085F0100085F010008C0
:1000A0005F010008392800085F0100085F010008AF
:1000B0005F0100085F0100084D2800085F0100088B
:1000C0005F0100085F0100085F0100085F01000890
:1000D0005F0100085F0100085F0100085F01000880
:1000E000E72400085F0100085F0100085F010008C5
:1000F0005F0100085F0100085F0100085F01000860
:100100005F0100085F0100085F0100085F0100084F
:100110005F0100085F0100085F0100085F0100083F
:100120005F0100085F0100085F0100085F0100082F
:10013000DFF80CD004F054F800480047952400087C
:10014000580400200648804706480047FEE7FEE7BF
:10015000FEE7FEE7FEE7FEE7FEE7FEE7FEE7FEE777
:1001600047020008310100080CB500200190009002
:100170006C48006840F480306A49086000BF6948F4
:10018000006800F4003000900198401C0190009835
:1001900018B90198B0F5A06FF1D16248006800F479
:1001A000003010B10120009001E000200090009884
:1001B000012843D15C48006840F010005A490860AB
:1001C0000846006820F0030008600846006840F018
:1001D0000200086053484068524948600846406839
:1001E00048600846406840F48060486008464068BF
:1001F00020F47C1048600846406840F4E8104860ED
:100200000846006840F08070086000BF45480068FC
:1002100000F000700028F9D04248406820F0030048
:10022000404948600846406840F00200486000BF0E
:100230003C48406800F00C000828F9D10CBD10B50E
:10024000FFF792FF10BD10B53648006840F001007E
:1002500034490860084640683449084031494860DC
:1002600008460068324908402E4908600846006880
:1002700020F4802008600846406820F4FE004860B2
:100280004FF41F008860FFF7DAFF4FF00060294944
:10029000086010BD10B5002100200022214B5B68D2
:1002A00003F00C0121B1042906D0082928D107E068
:1002B000214B224C236027E01F4B204C236023E07E
:1002C000184B5B6803F47010164B5B6803F48032C4
:1002D000022303EB904022B9194B4343174C236090
:1002E0000DE0104B5B6803F4003323B1144B434320
:1002F000124C236003E0104B4343104C236003E097
:100300000D4B0E4C236000BF00BF064B5B68C3F370
:1003100003130C4CE15C094B1B68CB40074C23607A
:1003200010BD000000100240002002400000FFF855
:10033000FFFFF6FE08ED00E000127A00000000204A
:1003400000093D000400002010B50446CC4884425A
:1003500008D10121042000F02DFB0021042000F031
:1003600029FB46E0C748844208D10121082000F05B
:1003700021FB0021082000F01DFB3AE0C248844226
:1003800008D10121102000F015FB0021102000F001
:1003900011FB2EE0BD48844208D10121202000F04D
:1003A00009FB0021202000F005FB22E0B848844230
:1003B00008D10121402000F0FDFA0021402000F08A
:1003C000F9FA16E0B348844208D10121802000F0F8
:1003D000F1FA0021802000F0EDFA0AE0AE488442F4
:1003E00007D10121801500F0E5FA0021A01500F0E9
:1003F000E1FA10BD10B50121084600F0DBFA00213A
:10040000012000F0D7FA10BD2DE9F0410246002589
:100410000026002000230024002791F803C00CF0E0
:100420000F0591F803C00CF0100CBCF1000F03D0C5
:1004300091F802C04CEA050591F800C0BCF1000F2C
:1004400031D0146800202BE04FF0010C0CFA00F3BF
:10045000B1F800C00CEA03069E4220D183004FF0A1
:100460000F0C0CFA03F7BC4305FA03FC4CEA040436
:1004700091F803C0BCF1280F06D14FF0010C0CFA23
:1004800000FCC2F814C00AE091F803C0BCF1480FA8
:1004900005D14FF0010C0CFA00FCC2F810C0401C52
:1004A0000828D1D31460B1F800C0BCF1FF0F34DDCF
:1004B000546800202EE000F1080C4FF0010808FA03
:1004C0000CF3B1F800C00CEA03069E4221D1830070
:1004D0004FF00F0C0CFA03F7BC4305FA03FC4CEA8F
:1004E000040491F803C0BCF1280F05D100F1080CF9
:1004F00008FA0CF8C2F8148091F803C0BCF1480F58
:1005000007D100F1080C4FF0010808FA0CF8C2F806
:100510001080401C0828CED35460BDE8F0814FF60F
:10052000FF710180022181700421C1707047024671
:10053000002093680B400BB1012000E000207047C1
:100540000146886880B2704702460020D3680B409D
:100550000BB1012000E0002070470146C86880B25E
:10056000704701617047416170470AB1016100E065
:1005700041617047C16070474FF480320A43826125
:100580008161826182698269704702460020434B23
:1005900018684FF68073184040EA021008433F4B3A
:1005A000186070473E49C8617047F0B50A4600239D
:1005B00000240021002500F00046B6F1004F02D1D2
:1005C000364EF16901E0354E7168C0F3034583B2E0
:1005D00000F44016B6F5401F08D121F070612F4E8F
:1005E000766826F070662D4F7E6012E000F480166B
:1005F000B6F5801F06D1032606FA05F4A14341F0A3
:10060000706106E0460D360103FA06F6B14341F08B
:10061000706122B1460D360103FA06F6314300F04F
:100620000046B6F1004F02D11C4EF16101E01B4EB5
:100630007160F0BD30B500228B071C0F0F2303FA49
:1006400004F2164B08338C1053F824309343134CA8
:1006500008348D1044F8253023468C1053F824308C
:100660008C07240F00FA04F423430C4C08348D103B
:1006700044F8253030BD0A49DC310860704700007D
:1006800000080140000C014000100140001401402E
:1006900000180140001C0140002001400000014002
:1006A00000002042DF48006840F00100DD4908609A
:1006B00008464068DC490840DA4948600846006856
:1006C000DA490840D74908600846006820F48020CD
:1006D00008600846406820F4FE0048604FF41F00A0
:1006E00088607047CF49096821F48031CD4A116094
:1006F0001146096821F480211160B0F5803F03D0D4
:10070000B0F5802F0ED106E0C649096841F480316A
:10071000C44A116007E0C349096841F4A021C14AF5
:10072000116000E000BF00BF704710B50146002215
:10073000002300204A11012A02D1BA4C236806E0A6
:10074000022A02D1B74C236A01E0B64C636A01F079
:100750001F02012494401C400CB1012000E0002045
:1007600010BD38B5002000900024002500BF3120C6
:10077000FFF7DBFF05460098401C00900098B0F59D
:10078000A06F01D0002DF2D03120FFF7CEFF08B1CD
:10079000012400E00024204638BD01460020A14A83
:1007A000106820F0F80040EAC10010607047A049CE
:1007B00008607047024600209A4B586820F47C106D
:1007C00042EA01031843974B5860704798490866FE
:1007D000704701460020934A506820F00300084308
:1007E000506070478F48406800F00C007047014629
:1007F00000208C4A506820F0F00008435060704799
:1008000001460020874A506820F4E06008435060A9
:10081000704701460020834A506820F4605040EA47
:10082000C1005060704729B17E4A527A02437D4B25
:100830005A7204E07B4A527A82437A4B5A7270476A
:100840007B49D8310860704701460020754A5068DE
:1008500020F440400843506070470021714A203224
:100860001170704A82F82010012802D004280AD1A1
:1008700004E001216B4A2032117005E00521694A2C
:100880002032117000E000BF00BF70476949086066
:1008900070476449096A0143624A116270476549B9
:1008A00044390860704730B500210022002400233D
:1008B0005C4D6D6805F00C0121B1042905D00829B3
:1008C00023D105E05C4D056022E05B4D05601FE033
:1008D000544D6D6805F47012524D6D6805F4803406
:1008E000022505EB92421CB9544D554305600BE0BF
:1008F0004C4D6D6805F400351DB1504D55430560F4
:1009000002E04D4D5543056002E04B4D056000BFD0
:1009100000BF444D6D6805F0F0010909484D6B5C5E
:100920000568DD4045603F4D6D6805F4E061090AEA
:10093000434D6B5C4568DD4085603A4D6D6805F45C
:100940006051C90A3E4D6B5C4568DD40C560354D60
:100950006D6805F44041890B3A4D6B5CC568B5FB89
:10096000F3F5056130BD29B12E4A526902432D4B82
:100970005A6104E02B4A526982432A4B5A617047FC
:1009800029B1284A92690243264B9A6104E0254A1C
:1009900092698243234B9A61704729B1214AD269F7
:1009A0000243204BDA6104E01E4AD26982431D4BA8
:1009B000DA61704729B11B4AD2680243194BDA60E9
:1009C00004E0184AD2688243164BDA60704729B1B6
:1009D000144A12690243134B1A6104E0114A126966
:1009E0008243104B1A6170471249403908607047C2
:1009F0000F49C86470470B49C87170470948406A7D
:100A000040F0807007494862704701460020054A5F
:100A100092680A400AB1012000E0002070470149B5
:100A200088727047001002400000FFF8FFFFF6FEDA
:100A3000000042428004424200127A0000093D0058
:100A40001400002024000020002044490860091DF3
:100A50000860091D0860091D086041483F491431BC
:100A60000860704700213D498279002A3AD00A4641
:100A7000126803689A430B461A600A1D12680368DD
:100A80009A430B1D1A60027911440A6803681A43DD
:100A90000A60324A0832126803689A432F4B0833BF
:100AA0001A601A1D126803689A432C4B0C331A60A3
:100AB0004279102A0ED11A1F126803681A43274B75
:100AC00008331A601A1D126803681A43234B0C334B
:100AD0001A600DE02149427911440A6803681A43FB
:100AE0000A6005E0027911440A6803689A430A60C3
:100AF00070470021016001710C2141710021817159
:100B000070471649103109680143144A10321160C8
:100B1000704701460020114A143212680A400AB197
:100B2000012000E0002070470C4914310860704734
:100B3000014600200022094B1B6803EA0102074B13
:100B400014331B680B4013B10AB1012000E00020F0
:100B500070470249143108607047000000040140EA
:100B6000FFFF0F0031490143314A1160704770B5F2
:100B7000002100230F22C47804B32D4C246804F410
:100B8000E064C4F5E064210AC1F10403CA4044787A
:100B900004FA03F18478144021430901254C0678B6
:100BA000A155047804F01F050124AC4005786D11AF
:100BB000AD0005F1E025C5F8004109E0047804F036
:100BC0001F050124AC401C4D0678761145F82640DF
:100BD00070BD1A4A0A400243154B1B1F1A6070472A
:100BE00039B1134A121D12680243114B1B1D1A60C2
:100BF00006E00F4A121D126882430D4B1B1D1A603E
:100C00007047042808D14FF0E021096941F0040140
:100C10004FF0E022116107E04FF0E021096921F077
:100C200004014FF0E0221161704700000000FA0556
:100C30000CED00E000E400E080E100E080FFFF1F39
:100C400030B943F2DB028100A1F1C0410A6005E046
:100C500043F2D2028100A1F1C0410A606FF07042FC
:100C6000411C8900A1F1C0410A608100A1F1C0418D
:100C7000C1F80421704710280AD118214FF02042F2
:100C80001166402151664FF0FC319166D16610E04B
:100C90001821F74A116040214FF02042C2F8841019
:100CA0004FF0FC31F24A083211604FF02042C2F896
:100CB0008C1070471820EE4920310860002009068A
:100CC000C1F8A4004FF0FC30E94928310860091D43
:100CD0000860091D08607047D0E901121143C2681D
:100CE0001143026911434269114382691143C26988
:100CF0001143026A1143426A1143826A1143C26A74
:100D00001143026B114302689200A2F1C0421160CC
:100D1000816808290BD101688900A1F1C0410968E7
:100D200041F0400201688900A1F1C0410A60416BB5
:100D30000968426B526841EA0211426B926841EACB
:100D40000221426B928941EA0241426B128A41EAD6
:100D50000251426B127D41EA0261426B926911437A
:100D60000268521C9200A2F1C0421160C16AB1F542
:100D7000804F1BD1816B0968826B526841EA021176
:100D8000826B926841EA0221826B128A41EA025127
:100D9000826B127D41EA0261826B926911430268A3
:100DA0009200A2F1C042C2F8041107E06FF0704255
:100DB00001688900A1F1C041C1F80421704730B534
:100DC000002100220023446844F0080485682C4375
:100DD000C5682C4305692C43456944EA4524856967
:100DE00044EA4531C4692468C5696D6844EA05244C
:100DF000C5692D8944EA0544C5692D7B44EA05622D
:100E0000046A2468056A6D6844EA0524056A2D8928
:100E100044EA0544056A2D7B44EA05630468102C06
:100E200005D14FF020442166A266E36608E0904CAD
:100E300021604FF02044C4F888208D4C0C3423608E
:100E400030BD016841F01001426841EA42218268E8
:100E500041EA4231864A20321160C1680968C2689D
:100E6000526841EA0221C268128941EA0241C2681D
:100E7000127B41EA02617E4A2832116001690968E9
:100E80000269526841EA02210269128941EA02417B
:100E90000269127B41EA0261754A2C321160416994
:100EA00009684269526841EA02214269128941EAAD
:100EB00002414269127B41EA02614FF02042C2F8CE
:100EC000B010704700210160022141600021816063
:100ED000C160016141618161C16101624FF4805172
:100EE0004162490081620021C16201630F21426BAE
:100EF0001160426B5160FF21426B91600F21426B88
:100F0000D160426B1161426B51610021426B916172
:100F10000F21826B1160826B5160FF21826B9160A7
:100F20000F21826BD160826B1161826B5161002154
:100F3000826B9161704710210160002141608160E6
:100F4000C160016141618161FC21C2691160C269B6
:100F50005160C2699160C269D160026A1160026A1F
:100F60005160026A9160026AD1607047002101609D
:100F700041608160FC21C2681160C2685160C26832
:100F80009160C268D16002691160026951600269B2
:100F900091600269D16042691160426951604269A1
:100FA00091604269D160704751B18200A2F1C042A4
:100FB000126842F001038200A2F1C042136009E00E
:100FC0008200A2F1C04212682A4B1A408300A3F1AA
:100FD000C0431A60704799B1102808D14FF02042E1
:100FE000126E42F004024FF020431A661DE0204AC0
:100FF000126842F004024FF02043C3F8802014E04E
:10100000102809D14FF02042126E1A4BDB1E1A40F5
:101010004FF020431A6608E0154A1268154BDB1E94
:101020001A404FF02043C3F88020704748B1104960
:101030002031096841F004014FF02042C2F8A010AD
:1010400009E00B49203109680A4AD21E11404FF0CD
:101050002042C2F8A0107047B9B110280CD14FF04F
:101060002042126E42F040024FF020431A661FE009
:10107000800000A0FEFF0F00724A126842F040029A
:101080004FF02043C3F8802012E0102808D14FF021
:101090002042126E6C4B1A404FF020431A6607E054
:1010A000684A1268684B1A404FF02043C3F880200A
:1010B000704701460020102903D14FF02042506FA5
:1010C00002E0604A14321068704710B5F2B110287F
:1010D00007D14FF020435B6E0B434FF02044636613
:1010E00032E0B0F5807F08D1564B1B1D1B680B43C7
:1010F0004FF02044C4F8843026E0524B24331B6860
:101100000B434FF02044C4F8A4301DE0102807D151
:101110004FF020435B6E8B434FF02044636613E037
:10112000B0F5807F08D1474B1B1D1B688B434FF0E8
:101130002044C4F8843007E0424B24331B688B43BF
:101140004FF02044C4F8A43010BD10B50246002072
:101150000023102A03D14FF02044636E09E0B2F55A
:10116000807F03D1374C241D236802E0354C2434A2
:10117000236803EA01040CB1012000E0002010BD47
:10118000102807D14FF02042526E8A434FF020437F
:101190005A6613E0B0F5807F08D12A4A121D126802
:1011A0008A434FF02043C3F8842007E0254A2432C5
:1011B00012688A434FF02043C3F8A420704770B5EB
:1011C00002460020002300240025102A03D14FF0FE
:1011D0002046736E09E0B2F5807F03D1194E361DAB
:1011E000336802E0174E2436336803EA010403EA49
:1011F000D10514B10DB1012000E0002070BD102810
:1012000008D14FF02042526E22EAD1024FF0204323
:101210005A6615E0B0F5807F09D10A4A121D12689E
:1012200022EAD1024FF02043C3F8842008E0054AA7
:101230002432126822EAD1024FF02043C3F8A420DE
:1012400070470000800000A0BFFF0F0010B50446EB
:10125000FE48844208D10121C014FFF7ABFB0021F6
:10126000E014FFF7A7FBC4E0B4F1804F08D10121DF
:101270000846FFF7ACFB00210120FFF7A8FBB8E010
:10128000F348844208D101210220FFF7A0FB00218E
:101290000220FFF79CFBACE0EE48844208D101211C
:1012A0000420FFF794FB00210420FFF790FBA0E04F
:1012B000E948844208D101210820FFF788FB00217A
:1012C0000820FFF784FB94E0E448844208D1012120
:1012D0001020FFF77CFB00211020FFF778FB88E04F
:1012E000DF48844208D101212020FFF770FB002154
:1012F0002020FFF76CFB7CE0DA48844208D1012112
:101300004014FFF757FB00216014FFF753FB70E018
:10131000D548844209D10121C804FFF74BFB0021C5
:101320004FF40020FFF746FB63E0D048844209D128
:1013300001210805FFF73EFB00214FF48010FFF765
:1013400039FB56E0CA48844209D101214805FFF71C
:1013500031FB00214FF40010FFF72CFB49E0C5489A
:10136000844208D101214020FFF731FB00214020B9
:10137000FFF72DFB3DE0C048844208D101218020C9
:10138000FFF725FB00218020FFF721FB31E0BB4860
:10139000844208D101218015FFF719FB0021A01517
:1013A000FFF715FB25E0B648844209D10121080466
:1013B000FFF700FB00214FF48030FFF7FBFA18E045
:1013C000B048844209D101214804FFF7F3FA002113
:1013D0004FF40030FFF7EEFA0BE0AB48844208D13F
:1013E00001218804FFF7E6FA00214FF48020FFF77F
:1013F000E1FA10BD00220288944B98420ED0994B1E
:1014000098420BD0B0F1804F08D0914B984205D054
:10141000904B984202D0904B984204D14FF68F7374
:101420001A404B881A438D4B984207D08C4B9842F8
:1014300004D04FF6FF431A40CB881A4302808B88B2
:1014400083850B880385814B98420BD0854B98424E
:1014500008D08B4B984205D08A4B984202D08A4BD9
:10146000984201D10B7A038601238382704770B5BD
:10147000002400220023058C4FF6FE7635400584BB
:10148000028C8388048B4FF68F752C40B51E2C4040
:101490000D882C43751E2A400D892A434D882A4306
:1014A0006A4DA8420BD06F4DA84208D0744DA84297
:1014B00005D0744DA84202D0734DA84213D14FF607
:1014C000F7752A404D892A434FF6FB752A408D88CF
:1014D0002A434FF6FF652B404FF6FF552B408D8971
:1014E0002B43CD892B4383800483CD88858602845A
:1014F00070BD70B5002400220023058C4FF6EF76F6
:1015000035400584028C8388048B48F6FF752C4097
:101510004FF6FF452C400D884FF6FF7606EA05256D
:101520002C434FF6DF752A400D8906EA05152A433C
:101530004D8806EA05152A43444DA84202D0494D7C
:10154000A8421DD14FF67F752A404D894FF6FF7690
:1015500006EA05152A434FF6BF752A408D8806EA2C
:1015600005152A434FF6FF352B404FF2FF752B40F0
:101570008D8906EA85052B43CD8906EA85052B432F
:1015800083800483CD880587028470BD70B50024F4
:1015900000220023058C4FF6FF6635400584028C3F
:1015A0008388848B4FF68F752C404FF6FC752C404A
:1015B0000D882C434FF6FF552A400D894FF6FF76D4
:1015C00006EA05252A434D8806EA05252A431F4DCC
:1015D000A84202D0234DA8421DD14FF2FF752A40E8
:1015E0004D894FF6FF7606EA05252A434FF6FF356B
:1015F0002A408D8806EA05252A434EF6FF752B40C2
:101600004DF6FF752B408D8906EA05152B43CD89D4
:1016100006EA05152B4383808483CD888587028461
:1016200070BD70B5002200230024058C4EF6FF76B5
:1016300035400584038C8488828B48F6FF752A40E8
:101640004FF6FF452A400D8820E00000002C0140A5
:101650000004004000080040000C00400010004062
:101660000014004000340140004C01400050014093
:101670000054014000180040001C004000200040C1
:101680000040014000440140004801404FF6FF7611
:1016900006EA05252A434DF6FF752B400D8906EA1B
:1016A00005352B434D8806EA05352B43FA4DA842F4
:1016B00002D0FA4DA84208D14BF6FF752C408D8917
:1016C0004FF6FF7606EA85152C4384808283CD8809
:1016D000A0F84050038470BD828B4FF2FF331A4054
:1016E0008283828B4FF6FF7303EA01231A438283BE
:1016F0007047F0B50C461546002200210026078CE5
:101700004EF6FF7C07EA0C070784828B018C4FF6AC
:10171000FF7707EA043640F6FF473A404FF6FF7777
:1017200007EA05273A434FF6FF7707EA03373A43BC
:10173000D94FB8420ED0D94FB8420BD0B0F1804F3C
:1017400008D0D74FB84205D0D64FB84202D0D64FB6
:10175000B84206D14DF6FF77394046F480573943F9
:1017600005E047F6FF57394044F4805739438283F8
:101770000184F0BD828B4FF6F3731A408283828B13
:101780000A4382837047F0B50C46154600220021BB
:101790000026078C4FF6FF6C07EA0C070784828B44
:1017A000018C4FF6FF7707EA04264FF60C773A4094
:1017B0004FF6FF7707EA03172F433A43B64FB84275
:1017C0000ED0B64FB8420BD0B0F1804F08D0B44F16
:1017D000B84205D0B34FB84202D0B34FB84206D199
:1017E0004FF6FF57394046F48077394305E04FF212
:1017F000FF57394044F48077394382830184F0BD38
:10180000028B4FF2FF331A400283028B4FF6FF73B5
:1018100003EA01231A4302837047F0B50C461546CC
:10182000002200210026078C4FF6EF7C07EA0C0708
:101830000784028B018C4FF6FF7707EA041640F607
:10184000FF473A404FF6FF7707EA03373A434FF630
:10185000FF7707EA05273A438F4FB8420ED08F4FE4
:10186000B8420BD0B0F1804F08D08D4FB84205D0B0
:101870008C4FB84202D08C4FB84206D14FF6DF777A
:10188000394046F01007394305E04FF65F7739409D
:1018900044F01007394302830184F0BD028B4FF6F8
:1018A000F3731A400283028B0A4302837047F0B538
:1018B0000C46154600220021068C4FF6FE773E406E
:1018C0000684028B018C4FF60C7632407E1C06EAB1
:1018D00003162E433243704EB0420ED06F4EB042CC
:1018E0000BD0B0F1804F08D06D4EB04205D06D4E98
:1018F000B04202D06C4EB04206D14FF6FD76314078
:1019000044F00106314305E04FF6F576314044F0EE
:101910000106314302830184F0BD70B505460C46D3
:101920005D4885420ED05D4885420BD0B5F1804FB1
:1019300008D05B48854205D05A48854202D05A48B3
:10194000854200D100E000BF208850B92389A288D9
:1019500061882846FFF7ABFFE1882846FFF79EFF26
:1019600025E0208804280AD12389A2886188284696
:10197000FFF753FFE1882846FFF742FF17E0208872
:1019800008280AD12389A28861882846FFF7FBFE30
:10199000E1882846FFF7EEFE09E02389A2886188E6
:1019A0002846FFF7A6FEE1882846FFF795FE70BDA2
:1019B0002DE9F04105460C4600260127608808B94C
:1019C000022600E00026A088012801D1022700E0BD
:1019D00001272088A0B92389A28861882846FFF7BB
:1019E00066FFE1882846FFF759FF23893A463146CA
:1019F0002846FFF712FFE1882846FFF701FF13E0B2
:101A00002389A28861882846FFF707FFE1882846D6
:101A1000FFF7F6FE23893A4631462846FFF747FF8F
:101A2000E1882846FFF73AFFBDE8F0810A884B8835
:101A30001A438B881A43CB881A430B891A434B8964
:101A40001A438B891A43A0F8442070474FF6FF7160
:101A5000818000210180C180418001727047002196
:101A6000018041808180C180018141818181C1816A
:101A70007047002101804180012181800021C180C7
:101A8000018170470021018041808180C1800181F6
:101A90004181818170470000002C014000340140E9
:101AA0000004004000080040000C004021B1028802
:101AB00042F00102028004E002884FF6FE731A40F1
:101AC0000280704731B1B0F8442042F40042A0F8DF
:101AD000442005E0B0F84420C2F30E02A0F84420F0
:101AE00070471AB183890B43838102E083898B435A
:101AF000838170478182704741EA0203A0F8483031
:101B000070471AB183890B43838102E083898B4339
:101B10008381704701894FF6F87211400181704747
:101B20000A46002101894FF68F7319401143018144
:101B3000704730B504460D4629462046FFF7F0FFB2
:101B4000208940F00700208130BD2DE9F041044696
:101B50000D4616461F46602D06D13B4601223146F2
:101B60002046FFF75AFE05E03B460122314620465B
:101B7000FFF79DFE29462046FFF7D2FF208940F05F
:101B800007002081BDE8F08130B50C4600210189B5
:101B9000C9B24FF6FF7505EA0325154325432943CE
:101BA000018130BD2DE9F04105460E4617469846A5
:101BB000002443463A4631462846FFF7E5FF2C8984
:101BC0004FF6F870044044F007044FF68F7004405D
:101BD00044F070042C81BDE8F081F0B504460D4658
:101BE00016461F463B46324629462046FFF7CCFFA5
:101BF000208940F480402081F0BD018582827047B9
:101C00000A46002101884FF68F7319401143018065
:101C10007047F0B50C4615461E46002100220023F1
:101C20000189028B038C4FF6F877394021434FF638
:101C3000FC473A4040F201173A434FF6DD773B400C
:101C40004FF6FF7707EA06172F433B4301810283D4
:101C50000384F0BD0A460021018B4FF68F731940B3
:101C60001143018370470A460021018B48F6FF7338
:101C700019404FF6FF7303EA0223194301837047AB
:101C80000A460021818B4FF68F73194011438183DF
:101C900070470A460021818B48F6FF7319404FF6C2
:101CA000FF7303EA022319438183704721B102883D
:101CB00042F08002028004E002884FF67F731A40EF
:101CC0000280704721B1828842F00402828004E0E1
:101CD00082884FF6FB731A408280704721B1828858
:101CE00042F00802828004E082884FF6F7731A40BF
:101CF0008280704721B1828842F00102828004E034
:101D000082884FF6FE731A40828070470A4600218F
:101D1000018B4FF6F77319401143018370470A4650
:101D20000021018B4FF2FF7319404FF6FF7303EA56
:101D300002231943018370470A460021818B4FF625
:101D4000F77319401143818370470A460021818B44
:101D50004FF2FF7319404FF6FF7303EA0223194352
:101D6000818370470A460021018B4FF6FB731940AF
:101D70001143018370470A460021018B4FF6FF3360
:101D800019404FF6FF7303EA02231943018370479A
:101D90000A460021818B4FF6FB7319401143818362
:101DA00070470A460021818B4FF6FF3319404FF6EA
:101DB000FF7303EA02231943818370470A46002117
:101DC000018B4FF67F7319401143018370470A4618
:101DD0000021018BC1F30E014FF6FF7303EA0223CA
:101DE0001943018370470A460021818B4FF67F73A8
:101DF00019401143818370470A460021818BC1F34A
:101E00000E014FF6FF7303EA0223194381837047E3
:101E10000A460021018C4FF6FD73194011430184DD
:101E200070470A460021018C4FF6F77319401143A1
:101E3000018470470A460021018C4FF6DF73194078
:101E40004FF6FF7303EA02131943018470470A46F1
:101E50000021018C4FF67F7319404FF6FF7303EAA0
:101E600002131943018470470A460021018C4FF682
:101E7000FF5319404FF6FF7303EA0223194301840D
:101E800070470A460021018C4FF2FF7319404FF64C
:101E9000FF7303EA02231943018470470A460021B5
:101EA000018C4DF6FF7319404FF6FF7303EA0233BE
:101EB00019430184704730B5002301248C40A3B23C
:101EC000048C9C430484048C02FA01F5ADB22C43CB
:101ED000048430BD30B5002304248C40A3B2048CAC
:101EE0009C430484048C02FA01F5ADB22C430484B3
:101EF00030BD70B503460020002418461830012577
:101F00008D40ACB21D8CA5431D8409B1082909D1AF
:101F100000EB6100056825F0700505600568154354
:101F200005600EE00D1FC5F34E052844056825F435
:101F3000E045056005684FF6FF7606EA0226354360
:101F4000056070BD21B1028842F00202028004E007
:101F500002884FF6FD731A400280704721B1028853
:101F600042F00402028004E002884FF6FB731A403C
:101F70000280704721B1828842F08002828004E0B2
:101F800082884FF67F731A408280704702884FF62E
:101F9000F7731A40028002880A43028070478288E1
:101FA0004FF68F731A40828082880A43828070477E
:101FB00002894FF6F8731A40028102890A430281AE
:101FC000704702894FF67F731A40028102890A43E3
:101FD0000281704781847047818570478186704790
:101FE0000187704781877047A0F8401070470288CA
:101FF0004FF6FF431A40028002880A43028070476E
:102000000146888E70470146088F70470146888FC9
:1020100070470146B1F8400070470146888C704710
:102020000146088D704702460020138A0B400BB111
:10203000012000E000207047CA430282704730B59B
:102040000246002000230024158A05EA0103958931
:1020500005EA010413B10CB1012000E0002030BDFD
:10206000CA4302827047000010B50446FB48844210
:1020700009D101218803FEF79DFC00214FF4804027
:10208000FEF798FC32E0F648844209D10121480469
:10209000FEF79DFC00214FF40030FEF798FC25E090
:1020A000F048844209D101218804FEF790FC002108
:1020B0004FF48020FEF78BFC18E0EB48844209D1F6
:1020C0000121C804FEF783FC00214FF40020FEF735
:1020D0007EFC0BE0E548844208D101210805FEF7AB
:1020E00076FC00214FF48010FEF771FC10BD2DE945
:1020F000F04786B005460E460024A24600BFA14622
:102100000027B08900B100BF2F462C8A4CF6FF7023
:102110000440F08804432C82AC894EF6F31004404E
:10212000B08831890843718908430443AC81AC8A83
:102130004FF6FF400440B0890443AC8201A8FEF78B
:10214000B2FBC648874202D1DDF810A001E0DDF8FD
:102150000CA0A88900F4004040B10AEBCA0000EBD3
:102160000A1031684900B0FBF1F807E00AEBCA0039
:1021700000EB0A1031688900B0FBF1F86420B8FB6D
:10218000F0F004012009642101FB1089A88900F402
:10219000004040B1322000EBC900B0FBF1F000F08C
:1021A0000700044308E0322000EB09106421B0FB73
:1021B000F1F000F00F0004432C8106B0BDE8F08779
:1021C0004FF41651016000218180C18001810C21F2
:1021D000418100218181704710B502460020108A9C
:1021E0004FF2FF0318400B884C8823438C8823430D
:1021F000CC8823431843108210BD00210180418008
:102200008180C180704721B1828942F4005282816D
:1022100004E082894DF6FF731A4082817047F0B561
:102220000346002400260025002040F66A17B94224
:1022300000D100BF1846C1F3421401F01F06012768
:1022400007FA06F5012C01D10C3004E0022C01D173
:10225000103000E014301AB107682F43076002E025
:102260000768AF430760F0BD1AB1838A0B438382CE
:1022700002E0838A8B4383827047028A4FF6F073B1
:102280001A400282028A0A430282704782894FF210
:10229000FF731A40828182890A438281704721B18B
:1022A000828942F00202828104E082894FF6FD7346
:1022B0001A4082817047028A4FF6DF731A40028209
:1022C000028A0A430282704721B1028A42F48042A4
:1022D000028204E0028A4BF6FF731A4002827047C2
:1022E000C1F308028280704701468888C0F3080065
:1022F0007047818941F0010181817047028BD2B220
:102300000283028B42EA012202837047028B02F4AD
:102310007F420283028B0A430283704721B1828A83
:1023200042F02002828204E0828A4FF6DF731A4074
:102330008282704721B1828A42F01002828204E0D8
:10234000828A4FF6EF731A408282704721B1828AE7
:1023500042F00802828204E0828A4FF6F7731A4044
:102360008282704721B1828942F40042828103E077
:102370008289C2F30E028281704721B1828A42F4BF
:102380000062828204E0828A4FF2FF731A408282E6
:102390007047828A4FF6FB731A408282828A0A4310
:1023A0008282704721B1828A42F00202828204E076
:1023B000828A4FF6FD731A408282704702460020DF
:1023C000B1F5007F00D100BF13880B400BB1012095
:1023D00000E00020704701F40072B2F5007F00D1E8
:1023E00000BFCA430280704770B502460024002334
:1023F0000025002040F66A16B14200D100BFC1F3AB
:10240000421501F01F03012606FA03F3012D02D144
:102410009689334006E0022D02D1168A334001E04E
:10242000968A33400C12012606FA04F416883440CA
:1024300013B10CB1012000E0002070BD10B50022E6
:10244000002340F66A14A14200D100BF0A12012401
:102450009440A3B2DC43048010BD0000003801406A
:102460000044004000480040004C00400050004044
:1024700010B54FF4A060FEF775FB00F00AF900F00C
:102480006DF800F09FF800F0D1F800F0CCFC01F0FE
:10249000D1FB10BDFFF7ECFF00BFFEE7704700BFA8
:1024A000FEE700BFFEE700BFFEE700BFFEE77047A4
:1024B00070477047704710B50120FEF739FB88B1AF
:1024C0001648006880F020001449086001F009F8FF
:1024D00013A11A4801F0DAF9184801F0F4F90120C3
:1024E000FEF737FB10BD10B54FF40050FEF720FB90
:1024F00090B10A48006880F001000849086001F0C6
:102500001BF80FA10D4801F0C1F90C4801F0DBF9EF
:102510004FF40050FEF71DFB10BD00000C0C0140F5
:102520004B4559312045584954207777772E6465BB
:102530006C656875622E746F700000000038014091
:102540004B455932204558495420323032302D31D4
:10255000302D30332031343A3530000008B50121B8
:102560000820FEF70DFA2020ADF8000010208DF8AD
:10257000030003208DF8020069461148FDF744FF6F
:102580000120ADF8000069460D48FDF73DFF02202F
:10259000ADF8000069460A48FDF736FF20210848DB
:1025A000FDF7DFFF01210648FDF7DBFF02210448AC
:1025B000FDF7D7FF08BD2022014B14331A60704786
:1025C000000C014008B501211420FEF7D9F90120C3
:1025D000ADF8000004208DF8030069461148FDF7AE
:1025E00013FF4FF40050ADF8000004208DF80300F5
:1025F00069460D48FDF708FF08BD70B504460D4655
:1026000029462046FDF793FF012808D100BF29463F
:102610002046FDF78CFF0128F9D0012070BD002075
:10262000FCE70000000801400010014008B501214E
:102630001020FEF7A5F90120ADF8000003208DF869
:10264000020010208DF8030069460448FDF7DCFE07
:1026500001210248FDF787FF08BD0000001001407E
:1026600008B54FF4C060FEF77DFA06208DF8000033
:1026700001208DF801008DF802008DF803006846F6
:10268000FEF775FA28208DF800006846FEF76FFA0D
:1026900008BD0EB501210520FEF772F9FFF7E0FF36
:1026A0000120ADF8080004208DF80B0002A91A489B
:1026B000FDF7AAFE00210846FDF7BCFF01200090AF
:1026C00000208DF8040008208DF8050001208DF809
:1026D00006006846FEF7C6F94FF40050ADF8080052
:1026E00004208DF80B0002A90C48FDF78DFE0D218A
:1026F0000220FDF79FFF4FF40050009000208DF85E
:1027000004000C208DF8050001208DF806006846B5
:10271000FEF7A8F90EBD00000008014000100140BE
:102720007FB505460C460121C802FEF729F9ADF830
:102730000850ADF804400020ADF80A00ADF80600DE
:102740008DF80C0001A96648FEF754FE01221146DF
:102750006348FFF7C6F919208DF8000000208DF8B6
:10276000010003208DF8020001208DF80300684667
:10277000FEF7FDF901215A48FFF798F97FBD30B502
:1027800087B005460C4601210220FEF706F901211B
:102790000846FEF7F5F8ADF81450ADF810400020EB
:1027A000ADF81600ADF8120004A94E48FEF722FE5F
:1027B0006020ADF800000120ADF802000220ADF865
:1027C000080069464748FEF7E1FE08214548FFF743
:1027D000B3FA01214348FFF769F907B030BD7FB56F
:1027E00005460C4601210420FEF7D7F8ADF8085045
:1027F000ADF804400020ADF80A00ADF8060001A9CC
:102800003948FEF7F7FD012211463748FFF769F90D
:102810001E208DF8000000208DF8010002208DF8A8
:10282000020001208DF803006846FEF7A0F901219F
:102830002D48FFF73BF97FBD10B501212848FFF770
:10284000FEFB01212648FFF7F7FB10BD10B5012163
:102850002548FFF7F4FB002840D02448007830B129
:10286000012811D002281CD0032832D126E02020D4
:102870001F49086001211F48FDF775FE1B480078BD
:10288000401C1A49087024E0012019490860012100
:102890001848FDF768FE15480078401C1349087079
:1028A00017E002201249086001211248FDF75BFE83
:1028B0000E480078401C0D4908700AE020200C49A1
:1028C000086001210B48FDF74CFE00200749087005
:1028D00000BF00BF01210448FFF7C2FB10BD7047D5
:1028E000002C0140000400400008004028000020A7
:1028F000140C01400010014001B502E00098401E98
:10290000009000980028F9D108BD08B501214FF4C6
:10291000B070FEF735F803208DF8020018208DF80E
:1029200003004FF48040ADF800006946FE48FDF713
:102930006BFD4FF40040ADF800006946FA48FDF722
:1029400063FD0120ADF800006946F748FDF75CFD26
:102950000220ADF800006946F348FDF755FD8020E0
:10296000ADF800006946F148FDF74EFD4FF4807068
:10297000ADF800006946ED48FDF746FD4FF40070E4
:10298000ADF800006946E948FDF73EFD4FF4806070
:10299000ADF800006946E548FDF736FD4FF40060EC
:1029A000ADF800006946E148FDF72EFD4FF4805078
:1029B000ADF800006946DD48FDF726FD4FF40050F4
:1029C000ADF800006946D948FDF71EFD4FF4804080
:1029D000ADF800006946D548FDF716FD4FF40040FC
:1029E000ADF800006946D148FDF70EFD4FF4807048
:1029F000ADF800006946CC48FDF706FD4FF40070C5
:102A0000ADF800006946C848FDF7FEFC4FF4806051
:102A1000ADF800006946C448FDF7F6FC03208DF8C8
:102A2000020018208DF803001020ADF80000694660
:102A3000BD48FDF7E9FC2020ADF800006946BA4822
:102A4000FDF7E2FC4FF48050ADF800006946B8484D
:102A5000FDF7DAFC0420ADF800006946B348FDF745
:102A6000D3FC10208DF8030003208DF802004FF4F2
:102A70000060ADF800006946AD48FDF7C5FC1020C8
:102A80008DF8030003208DF802004020ADF800000F
:102A90006946A748FDF7B8FC08BD00B597B001210D
:102AA0000802FDF760FF01200190042003908006DA
:102AB0000790002002900490059006900620089050
:102AC0000020099008200A9010200B9000200C9004
:102AD0000E900F9010904FF48050119000201290A3
:102AE0001390149001A81590169008A8FEF7F4F81A
:102AF00001210620FEF758FA17B000BD10B5CF200F
:102B000001F084FB002001F085FB812001F082FBB5
:102B1000302001F07FFBED2001F078FB642001F014
:102B200079FB032001F076FB122001F073FB81207A
:102B300001F070FBE82001F069FB852001F06AFBE1
:102B4000102001F067FB782001F064FBCB2001F03E
:102B50005DFB392001F05EFB2C2001F05BFB0020C7
:102B600001F058FB342001F055FB022001F052FB2C
:102B7000F72001F04BFB202001F04CFBEA2001F094
:102B800045FB002001F046FB002001F043FBB12093
:102B900001F03CFB002001F03DFB1B2001F03AFB63
:102BA000B62001F033FB0A2001F034FBA22001F033
:102BB00031FBC02001F02AFB352001F02BFBC120A6
:102BC00001F024FB112001F025FBC52001F01EFBC4
:102BD000452001F01FFB452001F01CFBC72001F040
:102BE00015FBA22001F016FBF22001F00FFB0020E4
:102BF00001F010FB262001F009FB012001F00AFB87
:102C0000E02001F003FB0F2001F004FB262001F07F
:102C100001FB242001F0FEFA0B2001F0FBFA0E204C
:102C200001F0F8FA092001F0F5FA542001F0F2FA67
:102C3000A82001F0EFFA462001F0ECFA0C2001F098
:102C4000E9FA172001F0E6FA092001F0E3FA0F2073
:102C500001F0E0FA072001F0DDFA002001F0DAFAD5
:102C6000E12001F0D3FA002001F0D4FA192001F09C
:102C7000D1FA1B2001F0CEFA042001F0CBFA10208B
:102C800001F0C8FA072001F0C5FA2A2001F0C2FAC3
:102C9000472001F0BFFA392001F0BCFA032001F00F
:102CA000B9FA062001F0B6FA062001F0B3FA302096
:102CB00001F0B0FA382001F0ADFA0F2001F0AAFAC5
:102CC000362001F0A3FAC82001F0A4FA2A2001F06E
:102CD0009DFA002001F09EFA002001F09BFA0020EE
:102CE00001F098FAEF2001F095FA2B2001F08EFA0E
:102CF000002001F08FFA002001F08CFA012001F091
:102D000089FA3F2001F086FA3A2001F07FFA552037
:102D100001F080FA112001F079FA0648FFF7ECFD86
:102D2000292001F073FA10BD001401400018014081
:102D300000200140FCBF020010B50446072C00DD56
:102D400010BDFE480470204604EBD0714910A4EB7E
:102D5000410139B9F020FA4908804FF4A070F949CF
:102D6000088006E04FF4A070F5490880F020F5498E
:102D70000880362001F04AFA082141EA441001F0A7
:102D800049FA2A2001F042FA002001F043FA00201B
:102D900001F040FAEA490988491EC1F3072001F011
:102DA00039FAE7490978491EC8B201F033FA2B20F5
:102DB00001F02CFA002001F02DFA002001F02AFA8F
:102DC000E0490988491EC1F3072001F023FADD49D3
:102DD0000978491EC8B201F01DFA2C2001F016FA3C
:102DE00000BFADE710B54FF40061D748FDF7BBFB5E
:102DF00040F6FF20FFF780FD4FF40061D248FDF759
:102E0000B0FB40F6FF20FFF777FD10BD10B504467C
:102E100024B14021CC48FDF7A6FB03E04021CA487D
:102E2000FDF79FFB10BD10B5FFF76FFDFFF735FEF7
:102E30000120FFF7EBFFFFF7D5FFFFF75FFEBF486D
:102E40000078FFF779FF10BD2DE9F04104460D46EB
:102E500016461F462A2001F0D9F9201201F0DAF9AE
:102E6000E0B201F0D7F9A119491EC1F30F2001F01A
:102E7000D1F9A119491EC8B201F0CCF92B2001F0FB
:102E8000C5F9281201F0C6F9E8B201F0C3F9E91951
:102E9000491EC1F30F2001F0BDF9E919491EC8B25E
:102EA00001F0B8F9BDE8F08170B504460D46012384
:102EB0001A4629462046FFF7C7FF70BD70B5044685
:102EC0000D4600262C2001F0A1F900BF03E02846A2
:102ED00001F0A0F9761CA642F9D370BD2DE9F041AE
:102EE00006460F4614461D462B46224639463046B6
:102EF000FFF7AAFF04FB05F094490988FFF7DEFFFE
:102F0000BDE8F08170B505460C468D4800888542C5
:102F10000CDA8C480088844208DA21462846FFF7FC
:102F2000C3FF8B4801880120FFF7C8FF70BD70B553
:102F30000024002500262E2001F068F901F062F936
:102F4000044601F05FF9044601F05CF9064601F021
:102F500059F90546E012C002A91240EA411040EAC0
:102F6000E62070BD70B504460D4629462046FFF7A1
:102F70009BFFFFF7DCFF0646304670BD2DE9FF4F93
:102F800083B081464FF0000AD3460598A0EB0905AF
:102F900004990698461ACDF8049004980090002DE4
:102FA00001DD012705E00DB9002702E04FF0FF37F2
:102FB0006D42002E02DD4FF0010806E016B94FF019
:102FC000000802E04FF0FF387642B54201DD2C46A2
:102FD00000E034460020029019E0DDE90010FFF720
:102FE00091FFAA44B344A24505DDAAEB040A019867
:102FF000384480B20190A34505DDABEB040B00988B
:10300000404480B200900298401C80B20290611C43
:1030100002988842E1DD07B0BDE8F08F2DE9F0416C
:1030200004460D4616461F46DDF81880B8F1000F1D
:103030000CD03B46324629462046FFF705FF06FBEB
:1030400007F043490988FFF739FF27E0A019401E20
:1030500082B22B4629462046FFF790FFE819401E12
:1030600083B2A019401E82B2E819401E81B22046E8
:10307000FFF784FFE819401E83B222462946204606
:10308000FFF77CFFE919491E8BB2A119491E8AB2CC
:10309000A119491E88B22946FFF770FFBDE8F081EB
:1030A0002DE9F05F05460E4691469B4600240FFA37
:1030B00089F70320A0EB49000FFA80FA95E0BBF1F5
:1030C000000F4ED0A04649E006EB080291B22A1943
:1030D00090B2FFF717FF06EB080291B22A1B90B2DD
:1030E000FFF710FF321991B2A5EB080290B2FFF77B
:1030F00009FF321B91B2A5EB080290B2FFF702FF65
:10310000A6EB080291B22A1B90B2FFF7FBFEA6EBDA
:10311000080291B22A1990B2FFF7F4FE321B91B265
:1031200005EB080290B2FFF7EDFE321991B205EB04
:10313000080290B2FFF7E6FE0CE000004800002015
:1031400044000020460000200020014052000020E2
:103150005000002008F101000FFA80F8B845B3DDF7
:103160002FE0F21991B22A1990B2FFF7CBFEF219B3
:1031700091B22A1B90B2FFF7C5FE321991B2EA1B39
:1031800090B2FFF7BFFE321B91B2EA1B90B2FFF77D
:10319000B9FEF21B91B22A1B90B2FFF7B3FEF21BED
:1031A00091B22A1990B2FFF7ADFE321B91B2EA1923
:1031B00090B2FFF7A7FE321991B2EA1990B2FFF769
:1031C000A1FE601C04B2BAF1000F05DAA000801D58
:1031D00050440FFA80FA07E0E01B80000A305044A8
:1031E0000FFA80FA781E07B200BFBC427FF767AFC4
:1031F000BDE8F09F2DE9F05F804689461646A6F1AE
:1032000020001FFA80FA754909688988734A126894
:10321000D28801FB02F0C11700EB5171C1F3C7075F
:103220006E48006800680AFB070B6C480068C3889A
:103230006A480068828849464046FFF705FE2C2010
:1032400000F0E4FF002416E0002510E01BF8040065
:1032500080212941084020B16148008800F0DAFF50
:1032600003E06048008800F0D5FF681CC5B2082D57
:10327000ECDB601CC4B2BC42E6DBBDE8F09F70B57D
:1032800004460D46002624E03046544909688988E2
:10329000084455490988884205DD00264F480068E2
:1032A000C088204484B220464C490968C988084433
:1032B0004E490988884201DD002600242A782146EB
:1032C0003046FFF797FF6D1C444800688088304403
:1032D00086B228780028D7D170BD70B505460E4655
:1032E000144624E028463D490968898808443E4937
:1032F0000988884205DD002538480068C0883044C8
:1033000086B2304635490968C98808443749098872
:10331000884201DD00250026227831462846FFF745
:1033200069FF641C2D4800688088284485B2207895
:103330000028D7D170BD70B505460E46144624E06E
:10334000304626490968C9880844284909888842BE
:1033500005DD0026214800688088284485B228467B
:103360001E490968898808441F490988884201DD87
:1033700000250026227831462846FFF73BFF641CD3
:1033800016480068C088304486B220780028D7D11B
:1033900070BD124908607047104800687047104AB5
:1033A0001080104A118070470D4A128802800D4A21
:1033B00012880A8070470A490880704709490880C6
:1033C000704770B50446FFF7E7FFC5882B460648EF
:1033D000028821460020FFF781FD70BD4C000020CF
:1033E0005000002052000020440000204600002031
:1033F00030B527480068274AB0FBF2F1B1F1807F71
:1034000001D301201DE021F07F40401E4FF0E0225B
:10341000506150170F22002807DA13071D0E1E4BAC
:1034200000F00F04241F1D5503E013071C0E1B4B57
:103430001C5400BF00204FF0E02290610720106173
:10344000002008B100BFFEE74FF0E020006920F047
:1034500001004FF0E021086130BD01B5104900982E
:1034600008604FF0E020006940F001004FF0E021DB
:10347000086100BF0A4800680028FBD108BD084861
:10348000006820B106480068401E05490860704782
:103490000000002040420F0018ED00E000E400E0D2
:1034A0005400002010B52020964908609648FFF788
:1034B000D4FF20209349091F08609448FFF7CDFFEF
:1034C00010BD10B501219248FDF74DF89148FFF766
:1034D000C4FF01218E48FDF744F88C48FFF7BDFF7B
:1034E00010BD10B58C48FFF754FF4FF6FF714FF435
:1034F0007840FFF754FF89480388894802880021F3
:103500000846FFF7EBFCFFF747FF002485A12046A4
:10351000FFF7B5FEFFF740FFC4888AA12046FFF7FA
:10352000AEFE4FF47840FFF746FF01231422C82176
:103530006420FFF7B5FD10BD10B57748FFF729FFF0
:103540004FF6FF714FF47840FFF729FF7348038867
:103550007348028800210846FFF7C0FCFFF71CFFF4
:10356000C08800EB400084B27AA12046FFF787FEB6
:10357000FFF712FFC0888004040C7DA12046FFF7EE
:103580007EFE4FF4FC60FFF716FF00232822C821BF
:103590006420FFF785FD10BD01B502E00098401ED4
:1035A000009000980028F9D108BD10B55A48FFF7DF
:1035B000F0FE4FF6FF714FF47840FFF7F0FE5748EA
:1035C00003885748028800210846FFF787FCFFF769
:1035D000E3FE00246AA12046FFF751FEFFF7DCFE60
:1035E000C4886CA12046FFF74AFEFFF7D5FEC088CD
:1035F0004004040C6EA12046FFF741FEFFF7CCFE0D
:10360000C08800EB400084B271A12046FFF737FE6E
:10361000FFF7C2FEC0888004040C75A12046FFF7A6
:103620002EFE3D48FFF7B5FEFFF7B6FEC08800EB63
:10363000800084B22046FFF7C4FE4FF4FC60FFF721
:10364000BAFEFFF7A9FEC08800EB800084B270A12B
:103650002046FFF714FE4FF47840FFF7ACFE01233D
:103660001422C8216420FFF71BFD4FF4FC60FFF714
:10367000A2FE00232822C8216420FFF711FD1F208D
:10368000FFF799FE00233C22B4216420FFF708FDD8
:103690006FF07F40FFF780FF20480088803883B2BA
:1036A0001F48028880210020FFF718FC10BD10B5CC
:1036B0005DA1654800F0EAF8634800F004F90422CF
:1036C00040F2D241604800F009F95F4800F0FBF891
:1036D000052243F29D015C4800F062F95A4800F06F
:1036E000F2F8082307225949574800F0AEF9564826
:1036F00000F0E9F856A1544800F0C8F8524800F02C
:10370000E2F810BD140C014040420F0020A1070058
:103710000010014080841E002C0000204600002084
:1037200044000020323032302D31302D3033203102
:10373000343A3330204253505F455849545F544522
:10374000535400004B4559312045584954205445A5
:1037500053540000323032302D31302D303320318F
:10376000343A33302044454C45485542000000006F
:103770004B45593220455849542054455354000074
:1037800064656C6520332E3220696E6368204C437B
:10379000443A0000496D616765207265736F6C750E
:1037A00074696F6E3A323430783332300000000082
:1037B000494C4939333431205446545F4C43445FBB
:1037C00054455354206472697665722000000000ED
:1037D0007777772E64656C656875622E746F7020DC
:1037E00042792077616E677A697875616E000000B2
:1037F000323032302D31302D30322031373A3135C0
:10380000205446545F4C43445F54455354000000D9
:103810005446545F4C43445F447261774369725F1E
:1038200054455354203A0000323032302D31302D7F
:1038300030322031383A3030205553415254312003
:103840005465737400000000003801407B5C9A44AA
:103850007777772E64656C656875622E746F70205B
:103860002042792077616E67207A69207875616ED1
:103870002000000000BF028802F04002002AFAD0B7
:103880008180704701468888C0B2704710B50446F1
:103890000B4604E019782046FFF7ECFF5B1C187814
:1038A0000028F7D110BD70B506460C46154600231A
:1038B00000BF05E0E15C3046FFF7DCFF581CC3B2F7
:1038C000AB42F7DB70BD00B503460D211846FFF78C
:1038D000D1FF0A211846FFF7CDFF00BD7CB5064693
:1038E0000C461546002000900190002C06DA60423C
:1038F00004B22D213046FFF7BDFF03E02B213046F7
:10390000FFF7B8FF042D0CDD42F2107094FBF0F0CD
:103910000A2190FBF1F201FB12003030C0B28DF8A9
:103920000000032D0CDD4FF47A7094FBF0F00A21B7
:1039300090FBF1F201FB12003030C0B28DF80100B3
:10394000022D0BDD642094FBF0F00A2190FBF1F2D4
:1039500001FB12003030C0B28DF80200012D0BDDEA
:103960000A2094FBF0F00A2190FBF1F201FB120017
:103970003030C0B28DF80300002D08DD0A2094FB22
:10398000F0F100FB11403030C0B28DF80400C5F1F9
:1039900005006A4681182A463046FFF784FF7CBD41
:1039A0007CB506460D461446002000900190042C7C
:1039B0000CDD42F2107095FBF0F00A2190FBF1F261
:1039C00001FB12003030C0B28DF80000032C0CDD7A
:1039D0004FF47A7095FBF0F00A2190FBF1F201FBB5
:1039E00012003030C0B28DF80100022C0BDD6420D3
:1039F00095FBF0F00A2190FBF1F201FB1200303050
:103A0000C0B28DF80200012C0BDD0A2095FBF0F00E
:103A10000A2190FBF1F201FB12003030C0B28DF8A8
:103A20000300002C08DD0A2095FBF0F100FB11508B
:103A30003030C0B28DF80400C4F105006A46811828
:103A400022463046FFF72FFF7CBD2DE9FF4F8BB09C
:103A50008A4614461D460026B1460021504600F015
:103A6000EFFA09D25146002000F086F982462D2156
:103A70000B98FFF7FFFE03E02B210B98FFF7FAFEF0
:103A800007E0052C03DD14B1601EC4B201E0681E1E
:103A9000C5B260190728F4DC504600F091FA0646DA
:103AA000304600F088FA5146019000F068F98346EC
:103AB00000F0B3FA824A834BCDE9020100F062F9CB
:103AC0000022814BCDE9040100F003FA074600F023
:103AD0008BFA8146042C0BDD42F21070B6FBF0F03D
:103AE0000A21B0FBF1F201FB120030308DF820000A
:103AF000032C0BDD4FF47A70B6FBF0F00A21B0FB1B
:103B0000F1F201FB120030308DF82100022C0ADDA9
:103B10006420B6FBF0F00A21B0FBF1F201FB1200C9
:103B200030308DF82200012C0ADD0A20B6FBF0F0BF
:103B30000A21B0FBF1F201FB120030308DF82300B6
:103B4000002C07DD0A20B6FBF0F100FB11603030DD
:103B50008DF82400002D0BDD42F21070B9FBF0F05F
:103B60000A21B0FBF1F201FB120030308DF8180091
:103B7000012D0BDD4FF47A70B9FBF0F00A21B0FB98
:103B8000F1F201FB120030308DF81900022D0ADD30
:103B90006420B9FBF0F00A21B0FBF1F201FB120046
:103BA00030308DF81A00032D0ADD0A20B9FBF0F041
:103BB0000A21B0FBF1F201FB120030308DF81B003E
:103BC000042D07DD0A20B9FBF0F100FB1190303025
:103BD0008DF81C00C4F1050008AA811822460B9834
:103BE000FFF761FE2E210B98FFF744FE2A4606A937
:103BF0000B98FFF758FE0FB0BDE8F08F70B5064682
:103C00000B4614460025254611E0601E012101FAED
:103C100000F0184020B131213046FFF72BFE03E0C1
:103C200030213046FFF726FE5B00681EC5B2002D2E
:103C3000EBDC70BD00B585B001210420FCF7A0FECF
:103C40004FF40070ADF8000003208DF8020018203A
:103C50008DF8030069461D48FCF7D6FB01210420BE
:103C6000FCF78EFE4FF48060ADF8000003208DF865
:103C7000020004208DF8030069461448FCF7C4FBD9
:103C800001218803FCF77CFE1148FEF7EDF94FF4A3
:103C9000E13001900020ADF80800ADF80A00ADF861
:103CA0000C00ADF810000C20ADF80E0001A908487A
:103CB000FEF71DFA01210648FEF7A5FA05B000BD82
:103CC000F168E388B5F8D43E006AF8400008014086
:103CD00000380140F0B480EA0102D40F4200B2EB98
:103CE000410F02D20246084611464A0042D0C30D97
:103CF000DDB2C1F3C752AD1A202D35DAC1F316017A
:103D000041F4000204B15242C5F1200602FA06F164
:103D10002A411044B3EBD05F23D0C4B1012DA0EBF6
:103D2000C35009DCF0BC4FF0004202EAC352DBB2E0
:103D300000F5000000F0C8B9400000F1807000EB11
:103D4000C350A0F1807040EAD170490009E04908F1
:103D500041EAC071A0EBC35000F50000400800EB41
:103D6000C350F0BC00F0A7B96142012202EB41014F
:103D7000001BF6E7F0BC704781F00041AAE780F035
:103D80000040A7E72DE9FE4F804681EA0300C00FFF
:103D90000C46009021F0004123F00045B8EB0200F2
:103DA000A94105D24046214690461C460B46024694
:103DB00023F00040104347D0270DC7F30A00C3F398
:103DC0000A510290401A019040286BDAC3F31300A5
:103DD00040F4801B0098924620B10023D2EB030AE6
:103DE00063EB0B0B01985946C0F14002504600F0BE
:103DF00031F906460D4650465946019A00F049F9F8
:103E000010EB08006141002487EA115284EAE7734D
:103E10001A4340D0009A62B3019A012A4FEA07522E
:103E200015DC001B61EB02014FF0004202EA075271
:103E3000CDE90042001C41F5801132462B4600F0CE
:103E400080F903B0BDE8F08F40462146F9E7001B3A
:103E500061EB0201001C41F5801300185B41201842
:103E6000A2F5001747EB030140EAD570B6196D4182
:103E700011E06D084FEA360645EAC0754FEA075271
:103E8000001B61EB0201001C41F5801149084FEA5B
:103E900030000019514132462B4603B0BDE8F04FC7
:103EA00000F040B90098012240000023D0EB02024C
:103EB00063EBE073009821464FEAE074B8EB000032
:103EC00061EB0401E9E783F000435BE781F0004127
:103ED00058E72DE9FE4F81EA030404F0004421F085
:103EE000004100944FF0000B23F0004350EA01041E
:103EF0005ED052EA03045BD0C3F30A54C1F30A55FF
:103F00002C44A4F2F3340194A0FB0254C1F3130136
:103F100041F48011C3F3130343F4801301FB024403
:103F200000FB034E840A970A44EA815447EA835708
:103F3000A4FB076802958D0A05FB07854FEA932CC1
:103F400004FB0C542705029D4FEA065847EA163732
:103F5000B5EB08056EEB070C870E920E47EA81174A
:103F600042EA8312A7FB0201B6EB0B0164EB0004EB
:103F70002B0D43EA0C335E1844EB1C50DA465146D5
:103F8000E7FB0201C5F313044FEA0B3343EA145372
:103F90004FEA0432019C43EA0603A4F10C040294A4
:103FA000009CCDE900B400F0CCF803B0BDE8F08F80
:103FB00000200146F9E796230022114600F084B85C
:103FC00020F00040C10DC0F3160040F400007F292E
:103FD00001DA00207047962903DCC1F19601C84040
:103FE0007047963988407047C1F30A5210B5C1F343
:103FF000130140F2FF3341F480119A4201DA0020AC
:1040000010BD40F233439A42A2F2334203DC5242E3
:1040100000F02FF810BD904010BD00F0004230F0CD
:1040200000400AD0C10D01F56071C0F3160042EAEC
:104030000151C208400711437047002001467047F4
:10404000002801DBC0F10040002901DBC1F1004183
:1040500081427047202A04DB203A00FA02F1002056
:1040600070479140C2F1200320FA03F319439040B6
:104070007047202A04DB203A21FA02F00021704721
:1040800021FA02F3D040C2F12002914008431946C0
:104090007047202A06DBCB17203A41FA02F043EAA8
:1040A000E07306E041FA02F3D040C2F120029140F1
:1040B0000843194670470029A8BF7047401C4900B3
:1040C00008BF20F00100704710B4B0FA80FC00FA7D
:1040D0000CF050EA010404BF10BC704749B1CCF1A8
:1040E000200421FA04F411FA0CF118BF0121214334
:1040F0000843A3EB0C01CB1D4FEA00614FEA1020EF
:1041000042BF002010BC704700EBC3501044002990
:10411000A4BF10BC7047401C490008BF20F001003C
:1041200010BC704710B5141E73F1000408DA401C6F
:1041300041F1000192185B411A4301D120F00100C6
:1041400010BD2DE9F04D92469B4611B1B1FA81F2B6
:1041500002E0B0FA80F220329046FFF77BFF04467F
:104160000F4640EA0A0041EA0B0153465A4608430B
:1041700013D0114653EA010019D0C8F1400250464D
:10418000FFF777FF05460E46504659464246FFF771
:1041900061FF084305D0012004E020463946BDE810
:1041A000F08D0020054346EAE0762C4337430A9819
:1041B0006305E40AA0EB08000022FD0A44EA475424
:1041C0000A3002D500200146E9E7010510196941CE
:1041D000DDE9084500196941BDE8F04DA2E700009E
:1041E000064C074D06E0E06840F0010394E8070044
:1041F00098471034AC42F6D3FBF79EFF9C7D000835
:10420000BC7D00084FF0DA40008870474FF0D8417D
:10421000088070474FF0DA410880704702E008C814
:10422000121F08C1002AFAD170477047002001E030
:1042300001C1121F002AFBD17047000000000000DE
:104240000000000000000000000000000018181826
:104250001818180800081800000000000034242472
:1042600024000000000000000000000000001624F0
:104270007F2424247E2424000000000000083E68DF
:1042800048681C1612127C10100000000061D296C3
:10429000740810162949C6000000000000003C64A4
:1042A0006438724ACE467F000000000000181818DB
:1042B00018000000000000000000000000040818C2
:1042C00010303030301010180C040000002010089E
:1042D000080C0404040C08181020000000080A341C
:1042E0001C6A080000000000000000000000000040
:1042F0001818187F181818000000000000000000AF
:104300000000000000181808300000000000000045
:104310000000003C00000000000000000000000061
:104320000000000000181800000000000002060451
:104330000C080810102020400000000000003C661F
:1043400042475B7342663C000000000000001878A2
:104350004808080808087E000000000000003C46ED
:104360000606040810207E000000000000007C0605
:1043700006043C0202067C000000000000000C1C49
:1043800014246444FF0404000000000000007E6068
:1043900060607E0202067C000000000000001E300B
:1043A0006048764242623C000000000000007E024D
:1043B00006040C08181030000000000000003C62E9
:1043C00042361C6642423C000000000000003C6691
:1043D0004242661A0204780000000000000000005B
:1043E000181800000018180000000000000000006D
:1043F0001818000000181808300000000000000025
:1044000004183060100C06000000000000000000DE
:1044100000007E007E0000000000000000000000A0
:10442000301804060C1020000000000000301C06AC
:10443000060618100010100000000000001C2241A9
:1044400041DDB5A5A5AF94C0403C00000000181C9C
:10445000342426627E43C1000000000000007C4638
:1044600042467C4242427C000000000000001E20C8
:104470004040404040603E000000000000007C469C
:1044800042434343424678000000000000007E6043
:1044900060607E6060607E000000000000007E6062
:1044A00060607E60606060000000000000001E60D0
:1044B0004040CE4242623E00000000000000424206
:1044C00042427E42424242000000000000007E184C
:1044D0001818181818187E000000000000007C044E
:1044E0000404040404447800000000000000424476
:1044F000485070584C44420000000000000020204A
:104500002020202020203E000000000000006266E5
:10451000675F5B5BC1C1C100000000000000626218
:1045200072525A4A4E4646000000000000003C62AB
:1045300043C3C3C343623C000000000000007C464C
:1045400042424678404040000000000000003C62CB
:1045500043C3C3C343623C180F00000000007C66E5
:1045600062667C6C646662000000000000003E60D1
:1045700040601C0602027C000000000000007F1862
:1045800018181818181818000000000000004242FF
:104590004242424242623C00000000000000C1432F
:1045A00042622624341C1800000000000000C1C133
:1045B00041495B5B766666000000000000004366D0
:1045C0003418181C2466C300000000000000C1421B
:1045D00066341C18181818000000000000007E0245
:1045E000040C181020607E0000000000001C101059
:1045F0001010101010101010101C0000004020208F
:10460000101008080C04060200000000003C0C0C0E
:104610000C0C0C0C0C0C0C0C0C3C00000000181CBE
:104620002462000000000000000000000000000004
:10463000000000000000000000FF0000002010004B
:10464000000000000000000000000000000000006A
:104650003C06023E42467A00000000000040404016
:104660005C62424242427C00000000000000000008
:104670001E20604060203E00000000000002020298
:104680003E62424242663A00000000000000000024
:104690003C62427E40603E0000000000000F1810A7
:1046A000107E10101010100000000000000000002C
:1046B0003F66426658403E43423C00000040404056
:1046C0005C624242424242000000000000181800B2
:1046D0007808080808087E000000000000040C00AC
:1046E0007C040404040404040C780000006060608E
:1046F000626C78706864620000000000007808084E
:104700000808080808087E000000000000000000FB
:10471000764B4B4B4B4B4B00000000000000000061
:104720005C62424242424200000000000000000081
:104730003C62424342623C00000000000000000076
:104740005C62424242427C40404000000000000067
:104750003E62424242663A0202020000000000004D
:104760006E72636060606000000000000000000086
:104770003E20203C06027C000000000000001010DB
:10478000FE10101010101E000000000000000000BD
:104790004242424242663A0000000000000000002F
:1047A0004342662434181800000000000000000096
:1047B000C1C15B5A5E666600000000000000000098
:1047C00062261C181C266200000000000000000089
:1047D00043426624341C181830E00000000000003A
:1047E0007E060C1810207E0000000000000E18103D
:1047F0001010307010101010180E00000808080873
:104800000808080808080808080800000030180808
:1048100008080C0E08080808183000000000000006
:104820000000714B060000000000000000000000C6
:104830000000000000000000000000000000000078
:104840000000000000000000000000000000000068
:104850000000000000000000000000000000000058
:104860000000000003800180018001800180018040
:1048700001800180018001800000000003C003C0AE
:104880000000000000000000000000000000000028
:10489000000000000E700E700E700C300000000062
:1048A0000000000000000000000000000000000008
:1048B00000000000000000000000000000000000F8
:1048C0000000000000000618063806307FFE0C309D
:1048D0000C300C300C307FFE0C601C6018601860CF
:1048E00000000000000000000000000000000000C8
:1048F000000000C000C00FF83CC831C031803D80CE
:104900001F8003F001F8031C030C031C3FF83FE079
:10491000070006000000000000000000000000008A
:1049200000001C007E0E630C631863307E6000C0C4
:1049300001800300077C0EE61CC618C630C6607CEA
:104940000000000000000000000000000000000067
:10495000000000000FE01CF0387038701C601FC0B1
:104960000F003F8C71CC60EC607C70383CFC1FCE3B
:104970000000000000000000000000000000000037
:104980000000000003C001800180018000000000E1
:104990000000000000000000000000000000000017
:1049A0000000000000000000000000000000000007
:1049B0000000003000E001C0018003000700060095
:1049C00006000E000E000E000E0006000700030099
:1049D000038001C000E00030000000000000000083
:1049E00000000C0006000380018001C000E00060B0
:1049F00000600070007000700060006000E000C0A7
:104A00000180038006000C00000000000000000090
:104A100000000000018011881DB803C007E03DBC04
:104A2000018801800000000000000000000000007C
:104A30000000000000000000000000000000000076
:104A400000000000000000000000018001800180E3
:104A5000018001807FFE01800180018001800000D3
:104A60000000000000000000000000000000000046
:104A70000000000000000000000000000000000036
:104A80000000000000000000000003C003C001C0DF
:104A900001C003801F0000000000000000000000B3
:104AA0000000000000000000000000000000000006
:104AB000000000000FF000000000000000000000F7
:104AC00000000000000000000000000000000000E6
:104AD00000000000000000000000000000000000D6
:104AE0000000000000000000000003C003C003C07D
:104AF00000000000000000000000000000000000B6
:104B000000000000001800380030006000E000C025
:104B100001C001800300030006000E000C001C0011
:104B2000180030000000000000000000000000003D
:104B30000000000001800FF01C38381C301C707E13
:104B400070EE738E7E0E7C0C300C381C1E780FE0DD
:104B50000000000000000000000000000000000055
:104B600000000000000007C01FC039C001C001C024
:104B700001C001C001C001C001C001C03FFC3FFC39
:104B80000000000000000000000000000000000025
:104B90000000000003801FF01838003800180038AB
:104BA0000038007001E0038007001C003FFC3FFC60
:104BB00000000000000000000000000000000000F5
:104BC0000000000007801FF0003800380038003077
:104BD00007E007F00038001C001C001820F83FE038
:104BE00000000000000000000000000000000000C5
:104BF00000000000000000F001B0033007300E306C
:104C00001C30383070307FFE7FFE003000300030C6
:104C10000000000000000000000000000000000094
:104C20000000000000001FF818001800180018000D
:104C30001FE000F8001C001C001C003800F01FC022
:104C40000000000000000000000000000000000064
:104C500000000000000003F80F001C0018003000E6
:104C600037F83C3C300C300C380C381C1E380FF038
:104C70000000000000000000000000000000000034
:104C80000000000000003FFC001C0018003800700D
:104C9000006000E001C001800380070006000E00F4
:104CA0000000000000000000000000000000000004
:104CB0000000000003C01FF8381C381C381C1C38CA
:104CC0000FF007F01C78381C300C381C3C380FF003
:104CD00000000000000000000000000000000000D4
:104CE0000000000003801FF03838301C701C700C6E
:104CF000380C1FFC0FCC001C001800701FE01F8038
:104D000000000000000000000000000000000000A3
:104D100000000000000000000000000003C003C00D
:104D20000180000000000000000003C003C003C0B9
:104D30000000000000000000000000000000000073
:104D400000000000000000000000000003C003C0DD
:104D50000180000000000000000003C003C001C08B
:104D600001C003800F0000000000000000000000F0
:104D700000000000000000000000003800F001C04A
:104D800007001E0038000E00078001C000700030D0
:104D90000000000000000000000000000000000013
:104DA0000000000000000000000000000000000003
:104DB0003FFC000000003FFC3FFC00000000000042
:104DC00000000000000000000000000000000000E3
:104DD000000000000000000000001C000F00038025
:104DE00001E00078001C007001E003800E000C0060
:104DF00000000000000000000000000000000000B3
:104E0000000000000FC000F0003800380038003803
:104E100003F0038003000300000000000780078008
:104E20000000000000000000000000000000000082
:104E3000000000E007F80C0C18063006700363F35E
:104E40006633C673CC63CC62CC66CCE6C7FCE000AC
:104E50006000700038101FF000000000000000002B
:104E600000000000000003C007E006E00E700E70B6
:104E70000C301C3818183FFC3FFC700E600EE00729
:104E80000000000000000000000000000000000022
:104E90000000000000003FF03838381C381C38385B
:104EA0003FF03FF8381C380C380C381C3FF83FE016
:104EB00000000000000000000000000000000000F2
:104EC0000000000000E007FC1E043800380030003D
:104ED000700070007000300038003C001F9C07FC20
:104EE00000000000000000000000000000000000C2
:104EF0000000000000003FF03078301C300C300E15
:104F0000300E300E300E300E301C30383FF03FC0C7
:104F10000000000000000000000000000000000091
:104F20000000000000001FF818001800180018000A
:104F30001FF81FF818001800180018001FF81FF8B5
:104F40000000000000000000000000000000000061
:104F50000000000000001FF81800180018001800DA
:104F60001FF81FF818001800180018001800180083
:104F70000000000000000000000000000000000031
:104F80000000000000F007FC1E0438003000700034
:104F9000700070FC700C700C300C380C1F1C07FC7F
:104FA0000000000000000000000000000000000001
:104FB000000000000000300C300C300C300C300CC5
:104FC0003FFC3FFC300C300C300C300C300C300C03
:104FD00000000000000000000000000000000000D1
:104FE0000000000000003FFC018001800180018082
:104FF0000180018001800180018001803FFC3FFC35
:1050000000000000000000000000000000000000A0
:105010000000000000001FF00030003000300030C1
:105020000030003000300030003000701DE01FC044
:105030000000000000000000000000000000000070
:10504000000000000000381C387038E039C03B8098
:105050003F003F003B8039C038E038703838381C9A
:105060000000000000000000000000000000000040
:105070000000000000001C001C001C001C001C00A4
:105080001C001C001C001C001C001C001FFC1FFC42
:105090000000000000000000000000000000000010
:1050A000000000000000381C7C3C6C3E6E6E666E9A
:1050B00066CE63C66386618660066006600660062B
:1050C00000000000000000000000000000000000E0
:1050D0000000000000003C0C3C0C3E0C360C330C75
:1050E000338C318C31CC30EC306C307C303C301C2B
:1050F00000000000000000000000000000000000B0
:105100000000000001C00FF81C3C381C700E700E2F
:1051100060066006700E700E700C381C1E780FE072
:10512000000000000000000000000000000000007F
:105130000000000000003FF0383C381C380C380CF0
:10514000381C38783FE03800380038003800380024
:10515000000000000000000000000000000000004F
:105160000000000001C00FF81C3C381C700E700ECF
:1051700060066006700E700E700C381C1E780FE012
:10518000018001C000FF003C0000000000000000A2
:105190000000000000003FF0383838183818383860
:1051A00038F03FC038E0387038383838381C380E9E
:1051B00000000000000000000000000000000000EF
:1051C0000000000001E00FF83800380038003C0013
:1051D0001F8003F00078001C001C001C38783FE0A2
:1051E00000000000000000000000000000000000BF
:1051F0000000000000007FFE01800180018001802E
:105200000180018001800180018001800180018096
:10521000000000000000000000000000000000008E
:10522000000000000000300C300C300C300C300C52
:10523000300C300C300C300C300C381C1C380FF09B
:10524000000000000000000000000000000000005E
:10525000000000000000E006700E700E381C381CC4
:105260001C181C380C300E70066007E003C003C029
:10527000000000000000000000000000000000002E
:10528000000000000000600660066006600661869F
:10529000638673C673CE766C366C3C3C3C3C381CE3
:1052A00000000000000000000000000000000000FE
:1052B000000000000000301C38181C380E7007E099
:1052C00003C003C007E00E701C381838381C700E7D
:1052D00000000000000000000000000000000000CE
:1052E000000000000000700E700C381C1C380E709E
:1052F000066007E003C00180018001800180018019
:10530000000000000000000000000000000000009D
:105310000000000000003FFC001C0038007000E0AE
:1053200001C0038007000E000C0018003FFC3FFC8A
:10533000000000000000000000000000000000006D
:10534000000007F007F00600060006000600060051
:10535000060006000600060006000600060006001D
:1053600006000600060007F0000000000000000034
:105370000000000018001C000C00060007000300DD
:105380000380018001C000C0006000700030003860
:105390000018000C000000000000000000000000E9
:1053A00000000FE00FE0006000600060006000603F
:1053B00000600060006000600060006000600060ED
:1053C0000060006000600FE00000000000000000CE
:1053D00000000000000003C006C006600C30181872
:1053E000301C000000000000000000000000000071
:1053F00000000000000000000000000000000000AD
:10540000000000000000000000000000000000009C
:10541000000000000000000000000000000000008C
:10542000000000000000FFFF00000000000000007E
:10543000000000001E0003800000000000000000CB
:10544000000000000000000000000000000000005C
:10545000000000000000000000000000000000004C
:105460000000000000000000000000001FF01038E5
:10547000001C001C0FFC1C1C381C381C3CFC1FDCD6
:10548000000000000000000000000000000000001C
:105490000000000038003800380038003BF83E1C9F
:1054A0003C1C380C380C380C380C381C3C781FE08D
:1054B00000000000000000000000000000000000EC
:1054C00000000000000000000000000007F80E00CF
:1054D0001C0038003800380038001C000F1807F88E
:1054E00000000000000000000000000000000000BC
:1054F00000000000001C001C001C001C0FFC1C1CF9
:10550000381C301C301C301C301C383C1CFC0F9CE0
:10551000000000000000000000000000000000008B
:105520000000000000000000000000000FF01C3828
:10553000381C300C3FFC3000300038001E0C07FCDB
:10554000000000000000000000000000000000005B
:105550000000003C01FE03800300030003007FFC09
:105560007FFC0300030003000300030003000300AB
:10557000000000000000000000000000000000002B
:105580000000000000000000000000000FFE1C38BA
:105590003818381818381FF03B8030003FF01FFCD7
:1055A000300E700E381C1FF80000000000000000D4
:1055B0000000000038003800380038003BF83E3862
:1055C0003C1C381C381C381C381C381C381C381C37
:1055D00000000000000000000000000000000000CB
:1055E0000000018003C003C0000000001FC001C014
:1055F00001C001C001C001C001C001C001C03FFC29
:10560000000000000000000000000000000000009A
:105610000000002000700070000000003FF00070EB
:1056200000700070007000700070007000700070FA
:105630000070007020E03FC000000000000000008B
:10564000000000001800180018001800183C18701E
:1056500018E01B801F001B8019E018701838181CF8
:10566000000000000000000000000000000000003A
:10567000000000001FC001C001C001C001C001C086
:1056800001C001C001C001C001C001C001C03FFC98
:10569000000000000000000000000000000000000A
:1056A0000000000000000000000000006F3C79EEE8
:1056B00071CE718E718E718E718E718E718E718EB2
:1056C00000000000000000000000000000000000DA
:1056D0000000000000000000000000003BF83E3821
:1056E0003C1C381C381C381C381C381C381C381C16
:1056F00000000000000000000000000000000000AA
:105700000000000000000000000000000FF01C3C42
:10571000381C700E700E700E700C381C1E780FE066
:105720000000000000000000000000000000000079
:105730000000000000000000000000003BF83E1CDC
:105740003C1C380C380C380C380C381C3C783FE0CA
:105750003800380038003800000000000000000069
:105760000000000000000000000000000FFC1C1CF6
:10577000381C301C301C301C301C383C1CFC0F9C6E
:10578000001C001C001C001C0000000000000000A9
:1057900000000000000000000000000019F81F1CBD
:1057A0001C0C180E1800180018001800180018001B
:1057B00000000000000000000000000000000000E9
:1057C0000000000000000000000000000FF81C00B6
:1057D00018001E000FC001F80018001818381FF03C
:1057E00000000000000000000000000000000000B9
:1057F0000000000000000600060006007FFC060016
:10580000060006000600060006000700078401FCEB
:105810000000000000000000000000000000000088
:10582000000000000000000000000000381C381CD0
:10583000381C381C381C381C381C383C1CFC0FDC4D
:105840000000000000000000000000000000000058
:10585000000000000000000000000000700C381C78
:1058600038181C380C300E70066007E003C003C007
:105870000000000000000000000000000000000028
:10588000000000000000000000000000600660064C
:105890006186738E73CC33CC366C366C3C3C3C38B2
:1058A00000000000000000000000000000000000F8
:1058B000000000000000000000000000381C1C3840
:1058C0000E7007E003C003C007E00E701C38381EDE
:1058D00000000000000000000000000000000000C8
:1058E000000000000000000000000000700C381CE8
:1058F00038181C380C300E70066007E003C003C077
:10590000038007000E007C00000000000000000083
:105910000000000000000000000000001FF8003838
:10592000007000E001C0038007000C001FFC3FFC7A
:105930000000000000000000000000000000000067
:105940000000007801F80380038003800380038057
:1059500003003F003E0003000380038003800380B8
:105960000380038001C000F80000000000000180F7
:10597000018001800180018001800180018001801F
:10598000018001800180018001800180018001800F
:105990000180018001800180000000000000000003
:1059A00000001E001F80018001C001C001C001C0B5
:1059B00000C000FC007C00C001C001C001C001C0EB
:1059C00001C001C003801F000000000000000000B3
:1059D00000000000000000000000000000000000C7
:1059E0001C003F0671CE60FC0000000000000000BB
:1059F00000000000000000000000000000000000A7
:105A00000000000000000000000000000000000096
:105A10000000000000000000000000000000000086
:105A20000000000000000000000000000000000076
:105A30000000000000000000000000000000000066
:105A40000000000000000000000000000000000056
:105A50000000000000000000000000000000000046
:105A6000000000000000000000000000003C0000FA
:105A70003C00003C00003C00003C00003C00003CBE
:105A800000003C00003C00003C00003C00003C00EA
:105A9000003C00003C00000000000000003C000052
:105AA0007E00003C0000000000000000000000003C
:105AB00000000000000000000000000000000000E6
:105AC00000000000000000000000000003C3E0032D
:105AD000C3E003C3C003C3C003C3C003C3C003C147
